:100000009DC10000C2C10000C0C10000BEC100000F
:10001000BCC10000BAC10000B8C10000B6C10000F8
:10002000B4C100000C94A115B0C10000AEC1000025
:10003000ACC100000C94630DA8C10000A6C1000073
:10004000A4C10000A2C100000C94E7130C94751524
:100050009CC100009AC1000098C1000096C1000038
:1000600094C1000092C1000020506F6C6F6C75004D
:1000700033F720526F626F740044656D6F005072E9
:100080006F6772616D00557365204220746F007355
:10009000656C6563742E0050726573732042002D89
:1000A0007472792069742100205468616E6B20009D
:1000B0002020796F75210020204D61696E0020207D
:1000C0004D656E750042617474657279004C4544EB
:1000D00073004C43440053656E736F7273004D6F31
:1000E000746F7273004D75736963005472696D703B
:1000F0006F740054696D6572007F4120A5422043F2
:100100007E000642003E6733323E3E633332003E9D
:100110003E6333323E673332002163333200216560
:1001200033320021673332002176383E3E6333326A
:1001300000000000000000001F1F1F1F1F1F1F04E2
:10014000060505041C1C0000020105091E08042107
:1001500020543132304F354C31366167616661650C
:1001600061206461632B61646165612066613C614B
:10017000613C626163236120646163236164616542
:100180006120664F366463643C622D643C61643C6C
:100190006720643C662B643C67643C61643C622D70
:1001A00020643C64643C65643C662B643C6720646A
:1001B0003C662B643C67643C61644C384D533C6244
:1001C0002D643C622D64204D4C652D3C67652D3CB3
:1001D00067204D53633C61633C61204D4C643C6639
:1001E000643C66204F354D53622D67622D674D4C40
:1001F0003E6323653E632365204D5320616661663F
:10020000204D4C20676323676323204D5320666491
:100210006664204D4C20653C622D653C622D4F3656
:100220004C31367261676166616561206461632388
:1002300061646165612066613C61613C6261632368
:100240006120646163236164616561206661656149
:10025000646163613C622D61636164673C622D6728
:10026000206567646763673C622D67203C61673C7B
:10027000622D6763663C616620646663663C622D3E
:10028000663C61663C67663C61663C622D653C6726
:1002900065206323653C622D653C61653C67652094
:1002A0003C66653C67653C61643C66644F35653E11
:1002B00065653E65663E64663E6420622D3E63234E
:1002C000622D3E6323613E64663E6420653E656543
:1002D0003E65663E64663E64653E643E63233E64FE
:1002E000623E643E632362203E632361676165670B
:1002F000666520664F3664632364666463233C62EC
:100300002063233400202020202020200720467551
:1003100067756520696E2044204D696E6F72202DCF
:10032000206279204A2E532E2042616368200720E4
:1003300020202020202000008416851611241FBEB6
:10034000CFEFD8E0DEBFCDBF11E0A0E0B1E0E2E446
:10035000FBE302C005900D92A63AB107D9F713E06E
:10036000A6EAB1E001C01D92AE31B107E1F713E09A
:10037000CAE3D3E004C02297FE010E948C1CC8335C
:10038000D107C9F7F9D40C94951D3ACE80914B0151
:100390008F5F80934B010895EF92FF920F931F930D
:1003A0008C017B010E94350FC8010E94590F80E02B
:1003B00061E00E94E50FC7010E94590F0E941F16BD
:1003C0007B018C0101C0D1D70E941F166E197F09D5
:1003D000800B910B685E734080409040A0F31F91AA
:1003E0000F91FF90EF9008951F93CF93DF9387EBCA
:1003F00090E06EEB70E0D0DFC6E0D0E00E94350FF9
:1004000080E061E00E94E50F89EF90E00E94590FC3
:1004100080E060E00E94E50FE091AA01F091AB015D
:10042000EE0FFF1FEE5CFE4F808191810E94590FFD
:1004300081E00E94ED0F99D782E30E94D511182F19
:100440008823C9F381FF0AC089E191E00E94DE0D93
:100450008091AA019091AB01019752C084FF45C0E1
:100460000E94F10F0E94350F8EE191E00E94DE0D97
:10047000812F0E941C1118C080E061E00E94E50FEE
:1004800082E091E00E94590F80E060E00E94E50F59
:10049000E091AA01F091AB01EE0FFF1FEC5DFE4F62
:1004A0000190F081E02D099580E10E942E118823B2
:1004B00019F380E090E060E070E00E94F1100E948B
:1004C000FA0D1092A7011092A6011092A9011092A4
:1004D000A8015998519A5F98579A8EE191E00E942D
:1004E000DE0DDF91CF911F91089585FF0DC083E24E
:1004F00091E00E94DE0D8091AA019091AB010196DE
:100500009093AB018093AA018091AA019091AB01D5
:1005100097FF04C0D093AB01C093AA018091AA01B8
:100520009091AB0107970CF469CF1092AB01109238
:10053000AA0164CF1F9382E30E94D511182F15D70B
:100540001123C9F311FF03C089E191E009C014FF31
:1005500003C08EE191E004C015FF06C083E291E084
:100560000E94DE0D01C001D7812F0E947A128823DC
:10057000D1F3812F1F910895EF92FF920F931F9354
:100580000E941F167B018C018091AF019091B001F8
:10059000A091B101B091B2010097A105B10501F19F
:1005A0008091B7019091B801A091B901B091BA01C1
:1005B0002091B3013091B4014091B5015091B60141
:1005C000821B930BA40BB50B8E0D9F1DA01FB11F9B
:1005D0008093B7019093B801A093B901B093BA0189
:1005E000E092B301F092B4010093B5011093B6010B
:1005F00082E00E942E118823F9F08091AE018823B9
:10060000D9F481E08093AE011092AF011092B00155
:100610001092B1011092B2011092B7011092B8017C
:100620001092B9011092BA010E94C30D882321F4DF
:1006300089E191E00E94DE0D82E00E942E11882364
:1006400011F41092AE0180E20E942E11882339F13C
:100650008091AD01882319F581E08093AD0120E000
:1006600030E040E050E08091AF019091B001A09166
:10067000B101B091B2010097A105B10521F421E0CB
:1006800030E040E050E02093AF013093B001409360
:10069000B1015093B20183E291E00E94DE0D80E24D
:1006A0000E942E11882311F41092AD016091B701C0
:1006B0007091B8018091B9019091BA0120EC37E2B4
:1006C00049E050E00E94381CCA01B9012AE030E03C
:1006D00040E050E00E94381C0E94B20F6091B701C8
:1006E0007091B8018091B9019091BA0120E63AEE7B
:1006F00040E050E00E94381CCA01B9012AE030E015
:1007000040E050E00E94381C0E94B20F8AE30E9431
:10071000CC0E6091B7017091B8018091B9019091B0
:10072000BA0128EE33E040E050E00E94381CCA01D4
:10073000B9012CE330E040E050E00E94381C2AE090
:1007400030E040E050E00E94381CCA01B9010E942C
:10075000B20F6091B7017091B8018091B901909189
:10076000BA0128EE33E040E050E00E94381CCA0194
:10077000B9012CE330E040E050E00E94381C2AE050
:1007800030E040E050E00E94381C162F772767FDCC
:100790007095872F972F0E94B20F8EE20E94CC0E89
:1007A0006091B7017091B8018091B9019091BA013F
:1007B00024E630E040E050E00E94381CCA01B90154
:1007C0002AE030E040E050E00E94381C0E94B20F66
:1007D0006091B7017091B8018091B9019091BA010F
:1007E0002AE030E040E050E00E94381CCA01B90124
:1007F0002AE030E040E050E00E94381C0E94B20F36
:100800008091AC011817A1F08091B7019091B801C7
:10081000A091B901B091BA010097A105B10541F0CD
:100820000E94C30D882321F488E291E00E94DE0D2E
:100830001093AC011F910F91FF90EF900895FF92DC
:100840000F93DF93CF9300D0CDB7DEB70E941F1672
:10085000F62E80917C008F7D80937C0018D6A0E0DE
:10086000B0E0BC01CD010E94B20F80E091E00E9497
:100870004A0F18C00CD69A83898368EC70E04FE069
:1008800087D72AE00202C0011124E981FA81E81722
:10089000F90724F45998519A5F9A03C0599A519ACA
:1008A0005F98579A0E941F16062F0F19043614F3EB
:1008B0000F900F90CF91DF910F91FF900895CF93FC
:1008C000DF930E941F162091BB013091BC01409123
:1008D000BD015091BE01621B730B840B950B6B3FE6
:1008E00071058105910550F1C0E0D0E0E091BF01B4
:1008F000FF27E7FDF095EC0FFD1FEB5FFC4FE49148
:100900008E2F0E94CC0E2196C830D10579F70E9417
:100910001F166093BB017093BC018093BD0190933F
:10092000BE018091BF018F5F8093BF01992787FD32
:1009300090950896C29710F01092BF010E94C30DC7
:10094000882321F48FE491E00E94DE0D84E690E09C
:100950000E94E815DF91CF9108950F931F9382E0D5
:100960000E942E112091A6013091A7018823E9F061
:10097000232B89F488EC90E00E94E81582E00E9425
:100980002E11882341F490E08091C101882309F45D
:1009900091E09093C1018091A6019091A7010A96E0
:1009A0009093A7018093A60106C024513040309354
:1009B000A7012093A60180E20E942E112091A80198
:1009C0003091A9018823E9F0232B89F488EC90E089
:1009D0000E94E81580E20E942E11882341F490E0E5
:1009E0008091C001882309F491E09093C001809127
:1009F000A8019091A9010A969093A9018093A8015A
:100A000006C0245130403093A9012093A801809161
:100A1000A6019091A70197FF04C01092A701109220
:100A2000A6018091A6019091A7018F3F910539F011
:100A300034F08FEF90E09093A7018093A60180910E
:100A4000A8019091A90197FF04C01092A9011092EA
:100A5000A8018091A8019091A9018F3F910539F0DB
:100A600034F08FEF90E09093A9018093A8018091DA
:100A7000A6019091A7016AE170E00E94031CFB01AE
:100A8000EF5BFE4F10818091A8019091A9016AE16E
:100A900070E00E94031CFB01EF5BFE4F0081812F81
:100AA0000E94CC0E8091C101882311F481E401C021
:100AB00081E60E94CC0E812F0E94CC0E85E060E082
:100AC0000E94E50F802F0E94CC0E8091C0018823E8
:100AD00011F483E401C083E60E94CC0E802F0E94B3
:100AE000CC0EE091A601F091A7018091C10188236D
:100AF00019F441E050E002C04FEF5FEF2091A801F0
:100B00003091A9018091C001882319F481E090E01F
:100B100002C08FEF9FEF829FB001839F700D929F65
:100B2000700D11244E9FC0014F9F900D5E9F900D40
:100B300011240E94F11082E390E00E94E8151F91B9
:100B40000F910895CF93DF93C0E0D0E08AE090E06A
:100B50000E94E81580E10E942E11882311F081E0A7
:100B600005C02196C931D10589F780E0DF91CF9189
:100B70000895AAE0B0E0EFEBF5E00C945F1C80E292
:100B80000E942E119E012F5F3F4F882319F0C9014B
:100B900060E002C0C90161E00E9439168E010F5F5A
:100BA0001F4F2BE0E22EF12CEC0EFD1EF80181917F
:100BB00091918F0169EC70E00E94EF1BFB01EF5BEC
:100BC000FE4F80810E94CC0E0E151F0579F780E242
:100BD0000E942E11882319F084E091E002C088E081
:100BE00091E00E944A0F84E690E00E94E8152A9660
:100BF000E6E00C947B1C8CE091E0D2D780E191E0A0
:100C00000E944A0F599A519A9DDF8823C1F459983E
:100C1000519A98DF882399F486E191E0C1D780E06A
:100C200060E00E94E50F8BE191E00E944A0F5F9A1D
:100C3000579A88DF882319F45F98579A83CF0895CD
:100C40000F931F9301EC10E0F8018081877F808370
:100C5000D2DFF8018081886080831F910F91089511
:100C600073D4AA2797FDA095BA2FBC01CD010E948D
:100C7000B20F81E291E00E944A0F84E690E00C946A
:100C8000E8150F931F9301E311E0C80160E00E9493
:100C9000CA0EC801019661E00E94CA0EC801029600
:100CA00062E00E94CA0EC801049663E00E94CA0E68
:100CB000C801059664E00E94CA0EC801069665E068
:100CC0000E94CA0E87E491E066E00E94CA0E8FE39C
:100CD00091E067E00E94CA0E0E94350F1F910F91AC
:100CE0000895EF92FF920F931F9380ED97E00E947B
:100CF0008216C7DF5ED00E941F167B018C0101C0E7
:100D000034D30E941F166E197F09800B910B645F0C
:100D1000714080409040A0F385E091E04FD788E695
:100D200090E060E770E038DB89E790E06EE770E024
:100D300033DB86E890E06FE870E02EDB0E94350F31
:100D400087E990E00E94590F80E061E00E94E50F82
:100D50008FE990E00E94590FEDDB84FFFDCF8FE01B
:100D600091E02CD788EA90E060EB70E015DB1F91F2
:100D70000F91FF90EF900895B4DF36DBFECF8091A6
:100D800074018F5F8093740108958091CA0181502E
:100D90008093CA018F3F19F483E68093CA010895B6
:100DA000881F8827881F08958095881F8827881F97
:100DB00008955098589A60E072EC81E090E00E94AB
:100DC000971488E492E064E60C94E5130C94350FD4
:100DD0001F93182F87FD02C080E01BC08CE491E0B8
:100DE000DFD60E94350F80E591E00E944A0F80E037
:100DF00061E00E94E50F812F0E94C40F8091CA011B
:100E000081508093CA018F3F19F483E68093CA0111
:100E100081E01F91089580E090E060E070E00E9422
:100E2000F1101092C3011092C20108950E9437166A
:100E30008CE390E064EC7FEF0E94F11003C081E04E
:100E40000E943F160E941F166A3F71058105910599
:100E5000B0F384EC9FEF6CE370E00E94F11003C0EC
:100E600081E00E943F160E941F166E5E7240804015
:100E70009040B0F38CE390E064EC7FEF0E94F110BF
:100E800003C081E00E943F160E941F16685E7340F7
:100E900080409040B0F380E090E060E070E00E941D
:100EA000F11089E591E061E00C9473158BE591E018
:100EB00066E00E94731580E090E060E070E00E94C0
:100EC000F1101092C3011092C2010895A2E0B0E0A7
:100ED000ECE6F7E00C94631C37D39A838983CE0148
:100EE000019662E00E9473152296E2E00C947F1C4A
:100EF000A2E0B0E0EEE7F7E00C94631CC8D29A835E
:100F00008983CE01019662E00E9473152296E2E089
:100F10000C947F1CACE0B0E0E0E9F7E00C94631CBB
:100F20008091C2019091C301892B39F08091C80151
:100F30009091C9018053984F05C0CE01039661E09E
:100F40000E944C169A838983CE01019662E00E942A
:100F500073152C96E2E00C947F1C8091C201909155
:100F6000C301892B09F463C08091C501882321F056
:100F70008091C701882329F480E090E060E070E070
:100F80004DC080E193E061E00E944C169C01205D21
:100F900037408091C8019091C901A901481B590BA4
:100FA0003093C9012093C8018091C60190E06091FF
:100FB000C701FC014E9FC0014F9F900D5E9F900D99
:100FC000112470E00E94031CFB018091C40190E099
:100FD0006091C501AC01249FC001259F900D349FF5
:100FE000900D112470E00E94031C80917301282F42
:100FF00030E0E60FF71F2E173F070CF4F9018827A2
:101000009927821B930BBF01E817F9070CF4BC0169
:1010100077FF06C0CB01820F931FB9010C94F1102A
:10102000C901861B970BBC01C9010C94F1100895EE
:10103000882361F08091C2019091C301892B59F4FA
:1010400080E193E061E00E94461605C080E193E0F4
:1010500061E00E94391680E193E06AE00C94731518
:1010600081E0E6CF80E0E4CF08C0E3D50E948212A1
:101070009091CA01891709F470DF0E948212909141
:10108000CA01891791F3E92FF0E0E85BFD4FE08199
:10109000892F8F5F8093CA01843610F01092CA01A5
:1010A0008E2F0895CF92DF92FF920F931F93DF93BD
:1010B000CF9300D000D00F92CDB7DEB78E010F5F77
:1010C0001F4F86E0C82ED12CCC0EDD1ECDDFF82EB2
:1010D0007FDE882301F5F801F1928F01EC15FD0503
:1010E000A9F789818F3711F48FEF01C0880F8093A2
:1010F00073018A818093C4018B818093C5018C81A7
:101100008093C6018D818093C70181E090E0909328
:10111000C3018093C2010F900F900F900F900F901A
:10112000CF91DF911F910F91FF90DF90CF900895A5
:101130000F931F9399DF082F4BDE882341F494DF30
:10114000182F46DE882319F4802F612F3ED71F9178
:101150000F910895FF920F931F9386DFF82E38DECC
:10116000882361F410E008C07FDF082F31DE882378
:1011700029F4802F11D61F5F1F15B0F31F910F9117
:10118000FF9008950F931F93CF93DF936DDF082F88
:101190001FDE8823B1F4CCEAD2E010E008C0153697
:1011A00081F062DF899314DE882359F41F5F1017E2
:1011B000B0F3E12FF0E0E455FD4F10828CEA92E0AD
:1011C000EFD4DF91CF911F910F9108951F934CDFC2
:1011D000182FFEDD882351F41F3719F481E09FEFAB
:1011E00004C08EEF1802C0011124F0D71F9108959A
:1011F0001F933ADF182FECDD882351F41F3719F4C1
:1012000081E09FEF04C08EEF1802C0011124BCD70B
:101210001F9108951F9328DF182FDADD882361F4CA
:101220001F3719F48FEF90E006C0812F992787FDB3
:101230009095880F991FCAD71F9108951F9314DFA7
:10124000182FC6DD882361F41F3719F48FEF90E063
:1012500006C0812F992787FD9095880F991F94D7F5
:101260001F9108951F9381E0E2D4FEDE182F873B83
:1012700009F45AC0883B14F5813B09F445C0823B10
:101280007CF48638E9F1873824F4813809F060C0AD
:1012900035C0873809F43FC0803B09F059C032C0DF
:1012A000843BB1F1853B24F4833B09F051C02EC04F
:1012B000853BA9F1863B09F04BC034C08C3B09F457
:1012C0003DC08D3B54F4893B99F1893B7CF18A3BCD
:1012D00089F18B3B09F03CC02FC0853C09F434C038
:1012E000863C34F4813C61F1823C09F031C02AC073
:1012F000863C61F1882309F4B8CF2AC0D7DDB5CF89
:10130000B1DEB3CFF5DDB1CFE1DDAFCF3BDFADCFA8
:1013100081E00E943F1681E090E0A2DEA6CF0E940D
:101320004316A3CFF7DDA1CFA0D59FCF13DF9DCF6D
:10133000FFDE9BCF7BDD99CFB5DE97CF6CDD95CF00
:101340007DDF93CF55DF91CF65DF8FCF3FDF8DCF2F
:101350008CD582E691E09ED580E061E036D6812F83
:1013600013D68AE691E01CD480CF0E948212882393
:1013700009F078CF0895882321F480917C008F7D37
:1013800003C080917C00806280937C0008958091EE
:101390007C0090E025E0959587952A95E1F781708E
:1013A000089580917A0090E036E0959587953A957A
:1013B000E1F781700895EBDF882321F02091790017
:1013C00030E004C02091780030917900C90108957F
:1013D0008032B0F497E890937A0090917C00292FA6
:1013E0002064662311F0906C02C0922F9F77907E4C
:1013F000982B90937C0080917A00806480937A008F
:101400000895A0E0B0E0E7E0FAE00C945D1C6B0109
:1014100060E0DEDFC6DF8823E9F7E601EE24FF2483
:10142000870180917A00806480937A00BADF8823F4
:10143000E9F7C1DFA0E0B0E0E80EF91E0A1F1B1FAC
:10144000219779F7C6019695879520E4C216D104B5
:1014500040F48E0D9F1D6C2D70E00E94EF1BCB01A0
:101460000DC0BC0180E090E06E0D7F1D801F911FBC
:10147000960140E050E00E94161CC901CDB7DEB7CE
:10148000E8E00C94791C87E064E170E0BACFFBCF10
:101490000895A3E0B0E0EFE4FAE00C94621CBC0114
:1014A00080E090E0209175013091760140E050E0BD
:1014B0000E94C41B182F69837A839B8368DF69812C
:1014C0007A819B81882371F09B01412F592FCA019A
:1014D000B90161587F4F8F4F9F4F2FEF30E040E0B1
:1014E00050E00DC09B01412F592FCA01B901615035
:1014F0007E4F8F4F9F4F2FEF33E040E050E00E9430
:10150000161CC9012396E3E00C947E1C7ADFC1CF40
:101510001F93CF93DF933BDF182F80E02CDF86E013
:101520006AE070E0F3DFEC01812F25DF9E01220FDE
:10153000331F2C0F3D1F2F5F3F4F36952795C90155
:10154000DF91CF911F910895E3CF08959091D0013D
:10155000E091CC01F091CD01992311F0849101C06B
:101560008081282F21542A3110F4805E0895803222
:1015700071F42091CC013091CD01A9014F5F5F4FF3
:101580005093CD014093CC012115310509F7089501
:10159000EF92FF92CF93DF93D9DFC0E0D0E01AC083
:1015A0009E01220F331F93E0CC0FDD1F9A95E1F7C8
:1015B000C20FD31F992787FD9095C80FD91FE097B9
:1015C0008091CC019091CD0101969093CD018093B3
:1015D000CC01BCDF982F90539A3010F3CE01DF91ED
:1015E000CF91FF90EF90089510926F0083E2809367
:1015F000800081E1809381001092820080E197E277
:10160000909389008093880010928B0010928A003A
:10161000229A789408958091CB01882321F481E067
:101620008093CB01E1CF0895A0E0B0E0EAE1FBE0D8
:101630000C94591C8C015B01E42EEDDF10927701B4
:1016400017FF04C01F77AAE0FA2E02C0FF24F3940C
:10165000C0908100DD2428EFC222DD2488EC3F2DDC
:10166000389FC001112480179107D8F4E80167E280
:101670000131160710F0C0E1D7E2BE0176956795FB
:1016800080E090E06058794687469F4F9E0140E099
:1016900050E00E94161C890181E090E0C82AD92AF6
:1016A0002CC098E2F99E902D112480E0892EE4014F
:1016B0004E01982EE4018016910608F4E801BE015F
:1016C000769567959E0140E050E08F2D8A3039F481
:1016D00080E090E0605E734481449F4F06C080E0EC
:1016E00090E060537D4E8C4E9F4F0E94161C8901E6
:1016F00052E0852E912CC828D9282F2D2A3039F474
:10170000CE0105966AE070E00E94EF1BEB0133E02A
:10171000C83ED30779F0BE0180E090E0950140E03B
:1017200050E00E94C41B28EE33E040E050E00E94ED
:10173000381C01C0950110926F00C0928100109377
:1017400089000093880040918800509189006E2D97
:10175000603108F06FE080E190E0861B9109BA01EA
:1017600002C0769567958A95E2F770938B00609337
:101770008A003093D3012093D20186B38FEF86BBCA
:1017800081E080936F00CDB7DEB7ECE00C94751C60
:101790004BCF08959B018F3F11F0442329F488EE2D
:1017A00093E0B90140E049C0813130F0582F5051E9
:1017B000503618F05FE501C050E0852F6CE00E94C4
:1017C000E31BA82FB0E0E4EFFFEFAE9FB001AF9FA7
:1017D000700DBE9F700D1124650F711D6C30710569
:1017E00040F4FB01EE0FFF1FEF57FE4F6081718148
:1017F00002C060E070E0873081F0082E02C0660F02
:10180000771F0A94E2F7823028F0CB0105966AE050
:1018100070E00CC0605070480BC0CB01B6E0880F80
:10182000991FBA95E1F7029665E070E00E94EF1B00
:10183000403108F04FE0CB01B901F6CEA0E0B0E0B6
:10184000E4E2FCE00C94581CB09078018091CE0149
:10185000882359F06091CF01662339F08FEF70E053
:1018600040E098DF1092CF0129C1C0ECDDE5AA2449
:10187000A39414E0712E00ED17E0B4E0EB2EF12CF0
:10188000A4EFCA2EA1E0DA2EFFE08F2E912C5EDEAF
:101890002091CC013091CD012F5F3F4F3093CD018E
:1018A0002093CC018636F1F18736CCF4823609F4E8
:1018B000AAC083367CF48E3349F18F333CF48132F5
:1018C00009F482C08C3309F096C022C0813609F039
:1018D00092C096C0843601F185360CF51BC08F3658
:1018E00009F445C0803744F48C3611F18D3659F136
:1018F000873609F080C019C0843709F441C08637A3
:1019000009F45CC0823709F076C036C0B394BFCF0B
:10191000BA94BDCFEE2432C0EE2482E076C0EE242D
:1019200084E073C0EE2485E070C0EE2487E06DC0D3
:101930002FDEBC0190937A018093790180917B0125
:1019400090917C0134C002DE8C3619F41092CE01E5
:1019500004C0A092CE011092CF018091CC01909151
:10196000CD0101969093CD018093CC0190CF10DEF4
:10197000B82E809378018BCFEE24E39480E045C0AD
:1019800007DEBC01CE010E94EF1BCB01880F991F1F
:1019900053E0660F771F5A95E1F7860F971F9093D4
:1019A0007C0180937B016091790170917A010E94A2
:1019B000EF1B70937E0160937D0169CFE9DD909309
:1019C000800180937F0163CF7092780110937C0136
:1019D00000937B01F0927A01E0927901D0927E012E
:1019E000C0927D019092800180927F011092CE0181
:1019F00044E0B42E4CCF1092CD011092CC015EC0C9
:101A0000EE2489E002C0EE248BE09CE0B99EB02C6D
:101A10001124B80E9BDD8B3211F08332B1F480912A
:101A2000CC019091CD0101969093CD018093CC0192
:101A3000B394F0CF8091CC019091CD010196909319
:101A4000CD018093CC01BA9481DD8D3299F3C091A0
:101A50007D01D0917E018153883050F4C0917B018B
:101A6000D0917C0195DDBC01CE010E94EF1BEB0102
:101A70008E010BC08091CC019091CD010196909385
:101A8000CD018093CC01C00FD11F169507955EDD67
:101A90008E3281F38091CE01882339F0CE01969564
:101AA00087958093CF01C81BD109EE2011F0BB248C
:101AB000BA948B2DBE0140917F016CDECDB7DEB7AD
:101AC000EDE00C94741C1F920F920FB60F9211242C
:101AD0002F933F934F935F936F937F938F939F9336
:101AE000AF93BF93EF93FF938091D2019091D30175
:101AF0009C01215030403093D3012093D2010097B4
:101B000009F510926F00789480918100887F816040
:101B10008093810080E197E2909389008093880010
:101B200010928B0010928A0081E08093770180915F
:101B3000CC019091CD01009729F08091D1018823AB
:101B400009F47CDEFF91EF91BF91AF919F918F914E
:101B50007F916F915F914F913F912F910F900FBEA9
:101B60000F901F90189580917701882351F081E0A4
:101B70002091CC013091CD012115310519F480E07F
:101B8000089581E00895EFCF089510926F0090932B
:101B9000CD018093CC011092D0011092CF014ECE96
:101BA000F4CF089510926F009093CD018093CC01F3
:101BB00081E08093D0011092CF0140CEF3CF089501
:101BC00010926F00E1E8F0E08081887F816080837F
:101BD00080E197E2909389008093880010928B00B7
:101BE00010928A0081E0809377011092CD011092CB
:101BF000CC010895E5CF089580917701882339F0CD
:101C00008091CC019091CD01009709F017DE81E021
:101C10002091CC013091CD012115310509F480E0EE
:101C200008958093D101882309F4E6CF0895F9CF70
:101C30000895E2CF089581E090E06F9364E06A95A3
:101C4000F1F76F910197C9F708950F931F93CF9301
:101C5000DF931AB157985A98289AC0E0D0E0EBDF8A
:101C60005C9AE9DF09B15C98E6DF5C9AE4DF5C9896
:101C700007FF11C024969E0140E050E08091D801FA
:101C80009091D901A091DA01B091DB0128173907B1
:101C90004A075B0720F31AB9DF91CF911F910F918B
:101CA000089565B190E0AC0141705070440F551F2C
:101CB0009C012670307053E0220F331F5A95E1F7D4
:101CC000242B6D7C262B25B92BB18870907034E0C5
:101CD000880F991F3A95E1F72F77282B2BB95C9A3B
:101CE000AADF5C98A8CFA2E0B0E0E9E7FEE00C94A0
:101CF0005E1C182F4A83698384D0A7DFF4B005B136
:101D0000DAB0EBB0289869814A81662311F05A9ABB
:101D100001C05A9884B1826384B9579A413021F046
:101D2000812F82958F70BDDF812F8F70BADFDAB877
:101D3000EBB8F4B805B92296E7E00C947A1C60E0A1
:101D400042E0D1CF61E042E0CECFEF92FF921F930D
:101D5000DF93CF930F92CDB7DEB7660F660F660F96
:101D6000482F592F7A0110E0812F860F80646983F4
:101D7000E6DFF7018491E6DF1F5F0894E11CF11CA8
:101D80006981183089F70F90CF91DF911F91FF90F3
:101D9000EF900895DACF0895D5CF089560E041E03F
:101DA000A2CF80E197E2A0E0B0E08093D8019093C9
:101DB000D901A093DA01B093DB01529A209A549A88
:101DC0008EE190E005D783E0E9DF86E090E000D780
:101DD00083E0E4DF82E090E0FBD683E0DFDF82E0B7
:101DE00090E0F6D682E0DADF82E090E0F1D688E299
:101DF000A6DF88E0A4DF81E0A2DF86E0A0DF8CE040
:101E00009ECF8091DC01882321F481E08093DC0166
:101E1000C8CF089581E093DF8091D4019091D501DE
:101E2000009711F1A0E0B0E208C0E091D401F09178
:101E3000D501E20FF31FB083AF5F2A2F30E080910E
:101E4000990190E0019760919A0170E0869FA0014E
:101E5000879F500D969F500D1124241735072CF3A2
:101E60001092D7011092D6010895D4CF0895EF9221
:101E7000FF92CF93DF93E82EE7017E01F92EE70171
:101E800001C060DF89918823E1F7DF91CF91FF9056
:101E9000EF900895ECCF0895CF93DF93EC0102C04B
:101EA00051DF2196FE0184918823D1F7DF91CF91F4
:101EB0000895F2CF0895AAE0B0E0E1E6FFE00C94C7
:101EC0005B1C9B01AC011AE0EAE0CE2ED12CE12C88
:101ED000F12C5E010894A11CB11C022FCA01B901AA
:101EE000A70196010E94161C1150F501E10FF11D8A
:101EF000005D922F990F892F880F880F890F081B7B
:101F00000083211531054105510539F707C0F60158
:101F1000E10FF11D808116DF1F5F04C06E01089480
:101F2000C11CD11C1A3098F32A96EAE00C94771C55
:101F3000EF92FF920F931F937B018C0197FF0AC0D2
:101F400010950095F094E094E11CF11C011D111D09
:101F50008DE2F8DEC801B701AEDF1F910F91FF904F
:101F6000EF900895E5CF08958A3010F4805D01C0A8
:101F7000895CE8CE1F93182F82958F70F5DF812F33
:101F80008F70F2DF1F910895F5CF0895A5E0B0E0BE
:101F9000ECECFFE00C94621C182F80E8898380EC45
:101FA0008A8384E98B8384ED8C83FE01E60FF11D27
:101FB0008181810F6D83C3DE1093D7016D816093A2
:101FC000D6012596E3E00C947E1CE0CF0895813085
:101FD00011F48FE001C08EE0B2CEF9CF08958CE00D
:101FE000AECEFDCF0895FC011182108213821282C1
:101FF000158214821682683068F489E290E0918339
:1020000080838BE290E0938382838AE290E09583E1
:10201000848311C06E30C0F483E290E091838083AA
:1020200085E290E09383828384E290E095838483C9
:1020300070E06850704081E090E002C0880F991F06
:102040006A95E2F7868308956531B8F486E290E0F8
:102050009183808388E290E09383828387E290E09B
:102060009583848370E06E50704081E090E002C000
:10207000880F991F6A95E2F786830895FC01A48171
:10208000B5818681662321F09C91982B9C930895BD
:102090009C91809589238C930895FC016F3F31F4C6
:1020A000A281B3818C91968189270CC0A281B381D2
:1020B0008681662321F09C91982B9C9308959C9196
:1020C000809589238C930895A7E0B0E0EAE6F0E1DB
:1020D0000C94601C282FF62E8E010F5F1F4FC80135
:1020E000622F81DFC8016F2DD8DFC80161E0C6DF34
:1020F0002796E5E00C947C1CE0EBF0E083EF808316
:10210000808184BDE1EBF0E082E08083808185BD49
:10211000E4EBF0E010828081E3EBF0E080838081EB
:1021200088BD88B587BD86E060E0CEDF85E060E0F1
:10213000CBDF8BE060E0C8DF83E060E0C5CF80915B
:10214000DD01882321F481E08093DD01D5CF08955E
:10215000CF93DF93EC01F3DFD7FF05C0D095C19596
:10216000DF4F81E001C080E0CF3FD10519F014F0CE
:10217000CFEFD0E0882319F018BCC7BD02C0C8BD9E
:1021800017BCDF91CF910895E3CF0895CF93DF93EC
:10219000EC01D5DFD7FF05C0D095C195DF4F81E0B9
:1021A00001C080E0CF3FD10519F014F0CFEFD0E0AF
:1021B000882329F01092B400C093B30004C0C093E8
:1021C000B4001092B300DF91CF910895DFCF08954E
:1021D000CF93DF93EB01BCDFCE01D8DFDF91CF914E
:1021E0000895F6CF089584B18D7C84B985B182635A
:1021F00085B985E090E06F9364E06A95F1F76F919F
:102200000197C9F708958091DE01882321F481E0C8
:102210008093DE01E8CF08951F93182FF4DF83B178
:102220008123E9F38AE090E0D3D483B18123B9F329
:1022300083B181231F910895EFCF0895A1E0B0E00D
:10224000E4E2F1E10C94631C8983DDDF93B19095A6
:10225000898189232196E2E00C947F1CEFCF0895B9
:10226000BF92CF92DF92EF92FF920F931F93B82EFF
:10227000C3B0DC2CD094E3D47B018C01C4DF80910B
:10228000EA01813021F1813038F0823009F445C013
:10229000833009F081C063C02B2D30E04D2D50E01C
:1022A00040955095242335232115310509F474C038
:1022B000CB20C092E501E092E601F092E7010093A5
:1022C000E8011093E90181E08093EA0165C0809103
:1022D000E6019091E701A091E801B091E901E81AC7
:1022E000F90A0A0B1B0B8FE0E816F1040105110532
:1022F00008F452C04091E5018D2D90E080959095B5
:10230000242F30E082239323009731F182E08093E1
:10231000EA01C422C092E5013FC04091E5018D2D44
:10232000842371F093E09093EA018093E501E092B9
:10233000E601F092E7010093E8011093E9012CC057
:1023400050E08B2D90E02D2D30E0209530958223AC
:1023500093234817590701F11092EA011DC080919B
:10236000E6019091E701A091E801B091E901E81A36
:10237000F90A0A0B1B0B8FE0E816F10401051105A1
:1023800058F08091E5018D2119F01092EA0105C005
:1023900092E09093EA0101C080E01F910F91FF90BD
:1023A000EF90DF90CF90BF9008955ACF0895CF92CD
:1023B000DF92EF92FF920F931F93C82ED3B03FD4BA
:1023C0007B018C0120DF8091E401813029F1813093
:1023D00038F0823009F447C0833009F083C065C00B
:1023E0002C2D30E04D2D50E0409550952423352381
:1023F0002115310509F476C0D094DC20D092DF019C
:10240000E092E001F092E1010093E2011093E30118
:1024100081E08093E40166C08091E0019091E10148
:10242000A091E201B091E301E81AF90A0A0B1B0B33
:102430008FE0E816F1040105110508F453C040913E
:10244000DF018D2D90E080959095242F30E0822340
:102450009323009739F182E08093E401D094D42251
:10246000D092DF013FC04091DF01842F8D2171F0B8
:1024700093E09093E4018093DF01E092E001F09219
:10248000E1010093E2011093E3012CC050E08C2D98
:1024900090E02D2D30E0209530958223932348172E
:1024A000590701F11092E4011DC08091E001909163
:1024B000E101A091E201B091E301E81AF90A0A0BE7
:1024C0001B0B8FE0E816F1040105110558F080910F
:1024D000DF018D2119F01092E40105C092E0909384
:1024E000E40101C080E01F910F91FF90EF90DF9019
:1024F000CF9008955CCF0895E1ECF0E080818F7D6E
:10250000808308958091ED010895282F30E0F9012E
:10251000EE0FFF1F43E0220F331F4A95E1F7E20F52
:10252000F31FE551FE4F408551854115510509F4D2
:1025300052C0282F30E0F901EE0FFF1FB3E0220F49
:10254000331FBA95E1F7E20FF31FE551FE4F728199
:10255000282F30E0F901EE0FFF1F93E0220F331F09
:102560009A95E1F7E20FF31FE551FE4F9481791739
:1025700090F5282F30E0F901EE0FFF1FA3E0220FA6
:10258000331FAA95E1F7E20FF31FE551FE4F928149
:10259000490F511DFA016083282F30E0F901EE0F39
:1025A000FF1F63E0220F331F6A95E1F7E20FF31F6D
:1025B000E551FE4F92819F5F282F30E0F901EE0F29
:1025C000FF1F43E0220F331F4A95E1F7E20FF31F8D
:1025D000E551FE4F9283282F30E0F901EE0FFF1FE7
:1025E000A3E0220F331FAA95E1F7E20FF31FE55195
:1025F000FE4F4281282F30E0F901EE0FFF1F63E00C
:10260000220F331F6A95E1F7E20FF31FE551FE4FEA
:102610009481491701F5282F30E0F901EE0FFF1FD3
:1026200043E0220F331F4A95E1F7E20FF31FE55114
:10263000FE4F9581992379F0282F30E0F901EE0FB4
:10264000FF1F83E0220F331F8A95E1F7E20FF31F8C
:10265000E551FE4F128208951F93182F8091C100FB
:102660008F778093C100212F30E0F901EE0FFF1F1B
:1026700043E0220F331F4A95E1F7E20FF31FE551C4
:10268000FE4F80859185009741F1212F30E0F901BF
:10269000EE0FFF1F83E0220F331F8A95E1F7E20F51
:1026A000F31FE551FE4F9281212F30E0F901EE0F2B
:1026B000FF1FA3E0220F331FAA95E1F7E20FF31FDC
:1026C000E551FE4F8481981740F48091C00087FF48
:1026D00004C06091C600812F18DF212F30E0F9017E
:1026E000EE0FFF1F63E0220F331F6A95E1F7E20F41
:1026F000F31FE551FE4F8081882329F48091C100AA
:1027000080688093C1001F9108959091C1009F77C8
:102710009093C100A82FB0E0FD01EE0FFF1F93E0E2
:10272000AA0FBB1F9A95E1F7EA0FFB1FE551FE4F79
:1027300071876087682F70E0FB01EE0FFF1F53E089
:10274000660F771F5A95E1F7E60FF71FE551FE4F29
:102750001282682F70E0FB01EE0FFF1F93E0660FFF
:10276000771F9A95E1F7E60FF71FE551FE4F448377
:10277000482F50E0FA01EE0FFF1FA3E0440F551F52
:10278000AA95E1F7E40FF51FE551FE4F2583282FA9
:1027900030E0F901EE0FFF1F63E0220F331F6A954F
:1027A000E1F7E20FF31FE551FE4F8081882329F402
:1027B0008091C10080688093C100089521E0A5CF79
:1027C0009C01462F80E0B901F9CFFACF08951F92FE
:1027D0000F920FB60F9211242F933F934F935F9355
:1027E0006F937F938F939F93AF93BF93EF93FF93D9
:1027F0006091C60080E089DEFF91EF91BF91AF91BB
:102800009F918F917F916F915F914F913F912F9108
:102810000F900FBE0F901F901895282F30E0F901F0
:10282000EE0FFF1F93E0220F331F9A95E1F7E20F9F
:10283000F31FE551FE4F2681378121153105B9F18E
:10284000282F30E0F901EE0FFF1FA3E0220F331F06
:10285000AA95E1F7E20FF31FE551FE4F4181282FC2
:1028600030E0F901EE0FFF1F63E0220F331F6A957E
:10287000E1F7E20FF31FE551FE4F93814917B8F4DA
:10288000282F30E0F901EE0FFF1F43E0220F331F26
:102890004A95E1F7E20FF31FE551FE4F808188234F
:1028A00031F48091C10080628093C100089524CEEC
:1028B000282F30E0F901EE0FFF1F53E0220F331FE6
:1028C0005A95E1F7E20FF31FE551FE4F90819923EE
:1028D00011F498E901C098E19093C1009EDF7894CB
:1028E0000895EF92FF920F931F937B018C0180E07C
:1028F000DFDFC801B70128EF3FEF4FEF5FEF44D7AD
:102900006050734D8E4C9E4FA8019701E4E0220F5A
:10291000331F441F551FEA95D1F788D73093C50060
:102920002093C4001F910F91FF90EF900895D9CF8D
:102930000895282F30E0F901EE0FFF1F73E0220FFA
:10294000331F7A95E1F7E20FF31FE551FE4F468101
:1029500057814115510509F458C0282F30E0F9017D
:10296000EE0FFF1F93E0220F331F9A95E1F7E20F5E
:10297000F31FE551FE4F6181282F30E0F901EE0F82
:10298000FF1FA3E0220F331FAA95E1F7E20FF31F09
:10299000E551FE4F93816917C0F59091C00095FFF6
:1029A00034C0282F30E0F901EE0FFF1F63E0220F43
:1029B000331F6A95E1F7E20FF31FE551FE4F918156
:1029C000490F511DFA0190819093C600282F30E0E5
:1029D000F901EE0FFF1F93E0220F331F9A95E1F7E5
:1029E000E20FF31FE551FE4F91819F5F282F30E0EA
:1029F000F901EE0FFF1FA3E0220F331FAA95E1F7A5
:102A0000E20FF31FE551FE4F918307CFA1E0B0E045
:102A1000EBE0F5E158C789836FDD89818ADF219674
:102A2000E2E06DC780E0F2DF80E016CEABEEB1E011
:102A3000282F30E0F901EE0FFF1F93E0220F331F24
:102A40009A95E1F7E20FF31FEA0FFB1F7783668386
:102A5000282F30E0F901EE0FFF1F93E0220F331F04
:102A60009A95E1F7E20FF31FEA0FFB1F1182282F5F
:102A700030E0F901EE0FFF1F63E0220F331F6A956C
:102A8000E1F7E20FF31FEA0FFB1F4383C6CE1F934C
:102A9000182FCCDF01C0C6DF212F30E0F901EE0F87
:102AA000FF1FA3E0220F331FAA95E1F7E20FF31FE8
:102AB000E551FE4F9181212F30E0F901EE0FFF1F0C
:102AC00063E0220F331F6A95E1F7E20FF31FE55130
:102AD000FE4F83819817F9F61F9108959C01462FA8
:102AE00080E0B901D4CFFACF08951F920F920FB6AC
:102AF0000F9211242F933F934F935F936F937F9384
:102B00008F939F93AF93BF93EF93FF9380E011DF79
:102B1000FF91EF91BF91AF919F918F917F916F91B5
:102B20005F914F913F912F910F900FBE0F901F908B
:102B300018956F9364E06A95F1F76F910197C9F763
:102B400008952F928F939F932FB68091F6019091C5
:102B5000F70101968093F6019093F70190E0809140
:102B6000F801891F8093F8019091FE019C5F90937A
:102B7000FE018091FD0180519742C0F09093FE01CB
:102B80008093FD018091F9019091FA010196809363
:102B9000F9019093FA0190E08091FB01891F8093E5
:102BA000FB018091FC01891F8093FC012FBE9F9146
:102BB0008F912F901895CF93DF93EC0104C088EE8E
:102BC00093E0B7DF21972097D1F7DF91CF91089558
:102BD000F2CF0895E0E7F0E080818E7F8083A0EB64
:102BE000B0E08C9183608C93A1EBB0E08C91807FFE
:102BF0008C938C9182608C93B89A80818160808361
:102C0000789408958091FF01882321F481E08093D6
:102C1000FF01E0CF0895F6DFE0E7F0E080818E7FEE
:102C200080832091F9013091FA014091FB0150918C
:102C3000FC01808181608083B901CA010895EBCFD6
:102C40000895E0DFE0E7F0E080818E7F80831092DE
:102C5000F9011092FA011092FB011092FC011092FE
:102C6000FE011092FD018081816080830895E9CF8B
:102C700008959C01462F80E092E0B9019BC2682F25
:102C800080E092E045C580E092E09BC09C01462F29
:102C900080E092E0B901E4C29C01462F80E092E01E
:102CA000B90120E09EC30F93DF93CF9300D000D0F3
:102CB0000F92CDB7DEB79C01962FDE011196EBE99E
:102CC000F1E085E001900D928150E1F7BE016F5F68
:102CD0007F4F992329F080E092E045E00FEF04C098
:102CE00080E092E045E003E1ACD080E092E042D0A9
:102CF000A8DF0F900F900F900F900F90CF91DF9162
:102D00000F91089560E0CFCF089580E092E022C552
:102D10006F9364E06A95F1F76F910197C9F7089591
:102D2000A7E0B0E0E5E9F6E1CCC58C01FC01118239
:102D300010821382128215821482178216826131E8
:102D400018F080E1808702C0FC016087F801208BC9
:102D5000CE010196642F47D98F81F80181878B813D
:102D60009C81938782878D819E8195878487279612
:102D7000E4E0C3C5FC01A485B585109771F08C9182
:102D80009185892B8C93A285B3859C9181858095B3
:102D900089238C9388EC90E0BBCF0895FC01A48537
:102DA000B585109769F08C919185892B8C93A285BC
:102DB000B3858C919185892B8C9388EC90E0A8CF7A
:102DC0000895FC0120E039C080819181009759F07D
:102DD000A22FB0E0AA0FBB1FA80FB91F8685978549
:102DE00011969C938E9384819581009759F0A22F20
:102DF000B0E0AA0FBB1FA80FB91F86859785119653
:102E00009C938E9382819381009749F0A22FB0E02A
:102E1000AA0FBB1FA80FB91F11961C921E92868184
:102E20009781009749F0A22FB0E0AA0FBB1FA80F0F
:102E3000B91F11961C921E922F5F8085281720F2D1
:102E40000895A7E0B0E0E6E2F7E12DC57C011B01A3
:102E5000642F3901402F20E063DF97012F5B3F4F44
:102E6000F9011082D701AE5BBF4F1C92C7018D5B89
:102E70009F4FFC011082F7017786668666242E013B
:102E80000894411C511C6C015D01490128C0062DAC
:102E900010E0F101E00FF11FC2016081A4D82F8181
:102EA000F701E00FF11F218B89819A81F801EE0F64
:102EB000FF1FEE0DFF1D92A381A38332910511F434
:102EC000F40109C08632910511F4F50104C089327C
:102ED000910521F4F6018081822B80836394F701B0
:102EE00080856816A0F22796E2E1F9C4A0E0B0E080
:102EF000EBE7F7E1DDC4EC015B01FC01EF5BFF4FA9
:102F00009080FC01EE5BFF4F8080FC01ED5BFF4F8A
:102F1000708080E009C0E82FF0E0EE0FFF1FEA0D9F
:102F2000FB1D118210828F5F98858917A0F384B1F1
:102F300021E4E22EF12CEC0EFD1ED7019C91892B91
:102F400084B987B18E010E5B1F4FF8019081892BE8
:102F500087B98AB193E4C92ED12CCC0EDD1ED601DF
:102F60009C91892B8AB985B1F7019081892B85B90C
:102F700088B1D8019C91892B88B98BB1F6019081D9
:102F8000892B8BB98AE090E0C3DE94B1D7018C9194
:102F90008095892384B997B1F80180818095892330
:102FA00087B99AB1D6018C91809589238AB995B158
:102FB000F70180818095892385B998B1D8018C91DA
:102FC0008095892388B99BB1F601808180958923FA
:102FD0008BB9C090B000E090B1008091B0008360E8
:102FE0008093B00082E08093B1000091B20080E055
:102FF00090E039C02091B200201B820F911D020F7A
:10300000F3B0F91409F04DC096B0981409F049C016
:1030100029B1271509F045C024C0212F30E0A901AE
:10302000440F551FF501E40FF51F60817181611593
:10303000710599F44C0F5D1FDA0191964D915C91E9
:103040009297DA014C912C0F3D1FD90151962C918A
:103050005197422311F4918380831F5F28851217B3
:10306000E0F2892C9F2C2E853F858217930710F262
:10307000C092B000E092B10020E00FC0E22FF0E07B
:10308000EE0FFF1FEA0DFB1D80819181009721F457
:103090008E859F85918380832F5F8885281770F3A5
:1030A00005C0F3B096B079B010E0D8CFCDB7DEB799
:1030B000EDE01AC4EF92FF920F931F93CF93DF932B
:1030C000FC019B0100917C0010917A00E7B0F8B000
:1030D00080917A0086FDFCCF80E00AC0A82FB0E086
:1030E000AA0FBB1FA20FB31F11961C921E928F5FD7
:1030F0009085891798F397B182A18095892387B924
:1031000098B182A18095892388B987E880937A0055
:1031100070E029C0DF01A60FB11D51968C91519727
:10312000806480937C0080917A00806480937A0030
:1031300080917A0086FDFCCFA62FB0E0AA0FBB1FBE
:10314000A20FB31F40917800509179008D919C910E
:103150001197840F951F11969C938E936F5F8085B6
:103160006817C0F27F5F81A1781710F460E0F7CF95
:1031700040E013C0C42FD0E0CC0FDD1FC20FD31F1F
:1031800061A170E0CB0195958795A881B9818A0FDF
:103190009B1F25D3798368834F5F8085481750F341
:1031A00000937C0010937A00F8B8E7B8CDB7DEB78B
:1031B000E6E0A1C3A0E2B0E0EFEDF8E17FC38C014F
:1031C0007B01D42E842F8150823010F4C801E6DDBB
:1031D000D80150968C915097882371F4C801B7019B
:1031E00085DEC801C7DDBD2DB230B9F5C801BE010D
:1031F0006F5F7F4F7BDE0DC0C801B7015BDFC80189
:10320000B9DDED2DE23049F5C801BE016F5F7F4F9A
:1032100051DF60E0AE014F5F5F4F1BC0862F90E033
:10322000880F991FF701E80FF91F840F951FD80128
:103230001E962D913C911F97DC018D919C911197C9
:10324000281B390B80819181820F931F918380838A
:103250006F5FF8018085681708F3A096E7E04AC31E
:103260008F929F92AF92BF92CF92DF92FF920F9375
:103270001F93CF93DF93EC01C62E072FF42E42301D
:1032800011F0FF2051F48C819D81009709F49DC0BD
:103290008E819F81009709F498C08F2D81508230D4
:1032A00050F488819981009709F48FC08A819B81AD
:1032B000009709F48AC0CE016C2D702F4F2D7ADF54
:1032C000AC2CB02E00E010E08824992478C08F2D1B
:1032D000813059F4EA81FB81E00FF11FC080D18079
:1032E000E881F981E00FF11F0DC08C819D81FF20E5
:1032F00061F4EE81FF81E00FF11FC080D180800F6B
:10330000911FFC01408151812BC0800F911FFC0156
:1033100080819181E881F981E00FF11F4081518125
:10332000CE84DF848417950710F4A60104C04C0DE9
:103330005D1D481B590BEE81FF81E00FF11F80815D
:103340009181EA81FB81E00FF11F20813181CE84E0
:10335000DF848217930720F0C20ED31EC81AD90A41
:10336000C41AD50AC1F0F5016081718180E090E056
:103370009A0140E050E0621B730B840B950B28EE22
:1033800033E040E050E000D2960140E050E070D2DF
:1033900037FD0AC002C020E030E0F3E0293E3F07DD
:1033A0002CF028EE33E002C020E030E0F50121935C
:1033B00031935F010894811C911C0E5F1F4F88851B
:1033C00090E0881699060CF482CFDF91CF911F917F
:1033D0000F91FF90DF90CF90BF90AF909F908F9014
:1033E0000895A5E0B0E0E6EFF9E15DC24C01C62E1C
:1033F000E72E2D8335DFD40118964C901897DE2CDC
:10340000642D70E080E090E028EE33E040E050E092
:10341000BBD169837A838B839C83EE24FF2487014D
:1034200066247724882499245401552435C0F60154
:103430003081218142E0242E312CC20CD31CC901E1
:10344000492F582F1A012D81222329F088EE93E06D
:10345000821993091C0199EC291631042CF4A3E379
:103460002A1631048CF002C055245394B1018827E8
:1034700077FD8095982FA801970186D1860E971E1B
:10348000A81EB91E620C731C88EE93E0A0E0B0E0A9
:10349000E80EF91E0A1F1B1F89819A81AB81BC812E
:1034A000E816F9060A071B0711F65520F1F4552412
:1034B00008944108510824EF31E0429EC001439E28
:1034C000900D529E900D112420914402309145029E
:1034D00028173907ACF088EE93E0489E9001499E8A
:1034E000300D589E300D11240DC0930140E050E086
:1034F000C501B4019BD1209344023093450202C020
:1035000020E030E0C9012596E2E1E9C1A7E6B0E09C
:10351000EBE8FAE1C8C18C014B016A01A6962FAF16
:10352000A697DA018D919C9111970097E1F4F8012B
:10353000808590E0880F991FF3D1D60111969C9356
:103540008E93009709F4E0C0FC0180E090E003C096
:10355000119211920196D80118962C91189730E08B
:1035600082179307ACF3F40180819181009789F071
:10357000EE24FF245E010894A11CB11CB1E46B2E63
:10358000712C6C0E7D1EA1E24A2E512C4C0E5D1E3C
:1035900022C0D80118968C9190E0880F991FC0D155
:1035A000F40191838083009709F4AEC0FC0180E0B0
:1035B00090E0D80107C01E962D913C911F97219352
:1035C0003193019618962C91189730E08217930743
:1035D00094F38D01CDCFC801B501A6964FADA69746
:1035E000E9DDD80118968C911897E82FF0E0A596A0
:1035F000FFAFEEAFA5971301F501A3965FAE4EAEF8
:10360000A397930140E050E0A8965FAE4EAEA89716
:1036100037C0E114F10461F0A896AEADBFADA89734
:103620006D917C911197808191816817790760F481
:1036300080819181A896AEADBFADA89711969C935D
:103640008E93E114F10449F0D9016D917C911197A9
:10365000808191818617970728F480819181D90113
:103660008D939C934F5F5F4F2E5F3F4F3296A8968E
:103670008EAD9FADA8970296A8969FAF8EAFA897E4
:10368000A596AEADBFADA5974A175B0714F2089497
:10369000E11CF11CBAE0EB16F10409F09CCF80E0CC
:1036A00090E02CC0F101419151911F01BC01660FC6
:1036B000771FD601ED91FC911197E60FF71F20813E
:1036C00031812417350710F451834083A396EEAD62
:1036D000FFADA39741915191A396FFAFEEAFA39792
:1036E000D401ED91FC911197E60FF71F20813181F4
:1036F0004217530710F4518340830196F801208547
:1037000030E08217930774F2C959DF4FE2E1E7C056
:103710001F93CF93DF93EC01162F862F81508230B9
:1037200050F4AE014E5F5F4FCE01BE0121E0EEDEF0
:10373000123019F00BC0662349F4BE016C5F7F4F55
:10374000AE014A5F5F4FCE0120E0E0DEDF91CF9116
:103750001F910895CF93DF93EC018A819B8100979D
:1037600009F08BD18E819F81009709F086D18881E5
:103770009981009709F081D18C819D81009709F092
:103780007CD1DF91CF910895629FD001739FF001AA
:10379000829FE00DF11D649FE00DF11D929FF00DE1
:1037A000839FF00D749FF00D659FF00D9927729F18
:1037B000B00DE11DF91F639FB00DE11DF91FBD01A3
:1037C000CF0111240895991B79E004C0991F961721
:1037D00008F0961B881F7A95C9F780950895AA1B53
:1037E000BB1B51E107C0AA1FBB1FA617B70710F0EC
:1037F000A61BB70B881F991F5A95A9F7809590951E
:10380000BC01CD01089597FB092E07260AD077FD4C
:1038100004D0E5DF06D000201AF4709561957F4F43
:103820000895F6F7909581959F4F0895A1E21A2E7D
:10383000AA1BBB1BFD010DC0AA1FBB1FEE1FFF1F54
:10384000A217B307E407F50720F0A21BB30BE40BA4
:10385000F50B661F771F881F991F1A9469F76095EB
:103860007095809590959B01AC01BD01CF010895A5
:1038700097FB092E05260ED057FD04D0D7DF0AD0BE
:10388000001C38F450954095309521953F4F4F4F8F
:103890005F4F0895F6F790958095709561957F4FED
:1038A0008F4F9F4F08952F923F924F925F926F924A
:1038B0007F928F929F92AF92BF92CF92DF92EF92C0
:1038C000FF920F931F93CF93DF93CDB7DEB7CA1B41
:1038D000DB0B0FB6F894DEBF0FBECDBF09942A886C
:1038E000398848885F846E847D848C849B84AA8414
:1038F000B984C884DF80EE80FD800C811B81AA81A1
:10390000B981CE0FD11D0FB6F894DEBF0FBECDBF6B
:10391000ED010895EE0FFF1F0590F491E02D09943D
:10392000CF93DF93BC018230910510F462E070E028
:10393000A0911C03B0911D03ED01E0E0F0E040E038
:1039400050E021C0888199818617970769F48A81A0
:103950009B81309719F09383828304C090931D0359
:1039600080931C03FE0134C06817790738F44115B1
:10397000510519F08417950708F4AC01FE018A81FE
:103980009B819C01E9012097E9F641155105A9F1B8
:10399000CA01861B970B049708F4BA01E0E0F0E037
:1039A0002AC08D919C91119784179507F9F464179B
:1039B000750781F412968D919C911397309719F0A9
:1039C0009383828304C090931D0380931C03FD01A5
:1039D00032964FC0CA01861B970BFD01E80FF91FF5
:1039E0006193719302978D939C9343C0FD018281F3
:1039F00093819C01D9011097A1F680911A039091AF
:103A00001B03892B41F48091A2019091A301909313
:103A10001B0380931A034091A4015091A501411505
:103A2000510541F44DB75EB78091A0019091A1017D
:103A3000481B590B20911A0330911B03241735079B
:103A4000B0F4CA01821B930B8617970780F0AB0175
:103A50004E5F5F4F8417950750F0420F531F5093EE
:103A60001B0340931A03F9016193719302C0E0E0D4
:103A7000F0E0CF01DF91CF910895CF93DF930097CE
:103A800009F450C0EC0122971B821A82A0911C03FA
:103A9000B0911D03109709F140E050E0AC17BD074D
:103AA00008F1BB83AA83FE0121913191E20FF31F3C
:103AB000AE17BF0779F48D919C911197280F391F8C
:103AC0002E5F3F4F3983288312968D919C911397D7
:103AD0009B838A834115510571F4D0931D03C093D4
:103AE0001C0320C012968D919C911397AD010097F5
:103AF00011F0DC01D3CFFA01D383C283219131913C
:103B0000E20FF31FCE17DF0769F488819981280F30
:103B1000391F2E5F3F4FFA01318320838A819B81B9
:103B200093838283DF91CF91089513E0CAE3D3E0BA
:103B300003C0FE01F1DE2296CC33D107D1F7F89411
:023B4000FFCFB5
:103B42002020200049522D00202043006333320000
:103B52005265642020003E63333200477265656E11
:103B6200006D5600300620061F04B905AD045F043F
:103B7200BC02C500CD00EB00D600DE00E500F3007C
:103B820007200000010203030405FF016F336300F5
:103B92004261642064617461006300337069312E94
:103BA200310042616420636D64006F376C313663AB
:103BB200726300FF01881301040400D007F4010FAF
:103BC200009C01B501CF01EA010702260247026902
:103BD200028E02B502DE020A0302080E0F10111253
:063BE20020001E0300009C
:00000001FF
